{
  "contractName": "RPS",
  "abi": [
    {
      "inputs": [],
      "stateMutability": "nonpayable",
      "type": "constructor"
    },
    {
      "anonymous": false,
      "inputs": [
        {
          "indexed": true,
          "internalType": "address",
          "name": "account",
          "type": "address"
        },
        {
          "indexed": true,
          "internalType": "address",
          "name": "operator",
          "type": "address"
        },
        {
          "indexed": false,
          "internalType": "bool",
          "name": "approved",
          "type": "bool"
        }
      ],
      "name": "ApprovalForAll",
      "type": "event"
    },
    {
      "anonymous": false,
      "inputs": [
        {
          "indexed": true,
          "internalType": "address",
          "name": "operator",
          "type": "address"
        },
        {
          "indexed": true,
          "internalType": "address",
          "name": "from",
          "type": "address"
        },
        {
          "indexed": true,
          "internalType": "address",
          "name": "to",
          "type": "address"
        },
        {
          "indexed": false,
          "internalType": "uint256[]",
          "name": "ids",
          "type": "uint256[]"
        },
        {
          "indexed": false,
          "internalType": "uint256[]",
          "name": "values",
          "type": "uint256[]"
        }
      ],
      "name": "TransferBatch",
      "type": "event"
    },
    {
      "anonymous": false,
      "inputs": [
        {
          "indexed": true,
          "internalType": "address",
          "name": "operator",
          "type": "address"
        },
        {
          "indexed": true,
          "internalType": "address",
          "name": "from",
          "type": "address"
        },
        {
          "indexed": true,
          "internalType": "address",
          "name": "to",
          "type": "address"
        },
        {
          "indexed": false,
          "internalType": "uint256",
          "name": "id",
          "type": "uint256"
        },
        {
          "indexed": false,
          "internalType": "uint256",
          "name": "value",
          "type": "uint256"
        }
      ],
      "name": "TransferSingle",
      "type": "event"
    },
    {
      "anonymous": false,
      "inputs": [
        {
          "indexed": false,
          "internalType": "string",
          "name": "value",
          "type": "string"
        },
        {
          "indexed": true,
          "internalType": "uint256",
          "name": "id",
          "type": "uint256"
        }
      ],
      "name": "URI",
      "type": "event"
    },
    {
      "inputs": [
        {
          "internalType": "address",
          "name": "account",
          "type": "address"
        },
        {
          "internalType": "uint256",
          "name": "id",
          "type": "uint256"
        }
      ],
      "name": "balanceOf",
      "outputs": [
        {
          "internalType": "uint256",
          "name": "",
          "type": "uint256"
        }
      ],
      "stateMutability": "view",
      "type": "function",
      "constant": true
    },
    {
      "inputs": [
        {
          "internalType": "address[]",
          "name": "accounts",
          "type": "address[]"
        },
        {
          "internalType": "uint256[]",
          "name": "ids",
          "type": "uint256[]"
        }
      ],
      "name": "balanceOfBatch",
      "outputs": [
        {
          "internalType": "uint256[]",
          "name": "",
          "type": "uint256[]"
        }
      ],
      "stateMutability": "view",
      "type": "function",
      "constant": true
    },
    {
      "inputs": [
        {
          "internalType": "address",
          "name": "",
          "type": "address"
        }
      ],
      "name": "choices",
      "outputs": [
        {
          "internalType": "string",
          "name": "",
          "type": "string"
        }
      ],
      "stateMutability": "view",
      "type": "function",
      "constant": true
    },
    {
      "inputs": [
        {
          "internalType": "address",
          "name": "account",
          "type": "address"
        },
        {
          "internalType": "address",
          "name": "operator",
          "type": "address"
        }
      ],
      "name": "isApprovedForAll",
      "outputs": [
        {
          "internalType": "bool",
          "name": "",
          "type": "bool"
        }
      ],
      "stateMutability": "view",
      "type": "function",
      "constant": true
    },
    {
      "inputs": [],
      "name": "player1",
      "outputs": [
        {
          "internalType": "address",
          "name": "",
          "type": "address"
        }
      ],
      "stateMutability": "view",
      "type": "function",
      "constant": true
    },
    {
      "inputs": [],
      "name": "player2",
      "outputs": [
        {
          "internalType": "address",
          "name": "",
          "type": "address"
        }
      ],
      "stateMutability": "view",
      "type": "function",
      "constant": true
    },
    {
      "inputs": [
        {
          "internalType": "address",
          "name": "from",
          "type": "address"
        },
        {
          "internalType": "address",
          "name": "to",
          "type": "address"
        },
        {
          "internalType": "uint256[]",
          "name": "ids",
          "type": "uint256[]"
        },
        {
          "internalType": "uint256[]",
          "name": "amounts",
          "type": "uint256[]"
        },
        {
          "internalType": "bytes",
          "name": "data",
          "type": "bytes"
        }
      ],
      "name": "safeBatchTransferFrom",
      "outputs": [],
      "stateMutability": "nonpayable",
      "type": "function"
    },
    {
      "inputs": [
        {
          "internalType": "address",
          "name": "from",
          "type": "address"
        },
        {
          "internalType": "address",
          "name": "to",
          "type": "address"
        },
        {
          "internalType": "uint256",
          "name": "id",
          "type": "uint256"
        },
        {
          "internalType": "uint256",
          "name": "amount",
          "type": "uint256"
        },
        {
          "internalType": "bytes",
          "name": "data",
          "type": "bytes"
        }
      ],
      "name": "safeTransferFrom",
      "outputs": [],
      "stateMutability": "nonpayable",
      "type": "function"
    },
    {
      "inputs": [
        {
          "internalType": "address",
          "name": "operator",
          "type": "address"
        },
        {
          "internalType": "bool",
          "name": "approved",
          "type": "bool"
        }
      ],
      "name": "setApprovalForAll",
      "outputs": [],
      "stateMutability": "nonpayable",
      "type": "function"
    },
    {
      "inputs": [
        {
          "internalType": "bytes4",
          "name": "interfaceId",
          "type": "bytes4"
        }
      ],
      "name": "supportsInterface",
      "outputs": [
        {
          "internalType": "bool",
          "name": "",
          "type": "bool"
        }
      ],
      "stateMutability": "view",
      "type": "function",
      "constant": true
    },
    {
      "inputs": [
        {
          "internalType": "uint256",
          "name": "",
          "type": "uint256"
        }
      ],
      "name": "uri",
      "outputs": [
        {
          "internalType": "string",
          "name": "",
          "type": "string"
        }
      ],
      "stateMutability": "view",
      "type": "function",
      "constant": true
    },
    {
      "inputs": [
        {
          "internalType": "address",
          "name": "_player1",
          "type": "address"
        },
        {
          "internalType": "address",
          "name": "_player2",
          "type": "address"
        }
      ],
      "name": "assignPlayers",
      "outputs": [],
      "stateMutability": "nonpayable",
      "type": "function"
    },
    {
      "inputs": [],
      "name": "player1Mint",
      "outputs": [],
      "stateMutability": "nonpayable",
      "type": "function"
    },
    {
      "inputs": [],
      "name": "player2Mint",
      "outputs": [],
      "stateMutability": "nonpayable",
      "type": "function"
    },
    {
      "inputs": [
        {
          "internalType": "string",
          "name": "choice",
          "type": "string"
        }
      ],
      "name": "play_player1",
      "outputs": [],
      "stateMutability": "nonpayable",
      "type": "function"
    },
    {
      "inputs": [
        {
          "internalType": "string",
          "name": "choice",
          "type": "string"
        }
      ],
      "name": "play_player2",
      "outputs": [],
      "stateMutability": "nonpayable",
      "type": "function"
    },
    {
      "inputs": [],
      "name": "getWinner",
      "outputs": [
        {
          "internalType": "string",
          "name": "",
          "type": "string"
        }
      ],
      "stateMutability": "view",
      "type": "function",
      "constant": true
    },
    {
      "inputs": [],
      "name": "getRewards",
      "outputs": [
        {
          "internalType": "string",
          "name": "",
          "type": "string"
        }
      ],
      "stateMutability": "nonpayable",
      "type": "function"
    }
  ],
  "bytecode": "0x608060405233600560006101000a81548173ffffffffffffffffffffffffffffffffffffffff021916908373ffffffffffffffffffffffffffffffffffffffff1602179055506000600560146101000a81548160ff0219169083151502179055506000600560156101000a81548160ff0219169083151502179055506000600560166101000a81548160ff021916908360ff1602179055506000600560176101000a81548160ff021916908360ff1602179055506001600560186101000a81548160ff021916908360ff160217905550348015620000dc57600080fd5b506040518060400160405280601181526020017f68747470733a2f2f746573742e6a736f6e00000000000000000000000000000081525062000124816200041f60201b60201c565b50600060066040516200013790620005df565b90815260200160405180910390206040516200015390620005df565b908152602001604051809103902060006101000a81548160ff021916908360ff160217905550600260066040516200018b90620005df565b9081526020016040518091039020604051620001a790620005b1565b908152602001604051809103902060006101000a81548160ff021916908360ff16021790555060016006604051620001df90620005df565b9081526020016040518091039020604051620001fb90620005c8565b908152602001604051809103902060006101000a81548160ff021916908360ff160217905550600160066040516200023390620005b1565b90815260200160405180910390206040516200024f90620005df565b908152602001604051809103902060006101000a81548160ff021916908360ff160217905550600060066040516200028790620005b1565b9081526020016040518091039020604051620002a390620005b1565b908152602001604051809103902060006101000a81548160ff021916908360ff16021790555060026006604051620002db90620005b1565b9081526020016040518091039020604051620002f790620005c8565b908152602001604051809103902060006101000a81548160ff021916908360ff160217905550600260066040516200032f90620005c8565b90815260200160405180910390206040516200034b90620005df565b908152602001604051809103902060006101000a81548160ff021916908360ff160217905550600160066040516200038390620005c8565b90815260200160405180910390206040516200039f90620005b1565b908152602001604051809103902060006101000a81548160ff021916908360ff16021790555060006006604051620003d790620005c8565b9081526020016040518091039020604051620003f390620005c8565b908152602001604051809103902060006101000a81548160ff021916908360ff16021790555062000666565b8060029080519060200190620004379291906200043b565b5050565b828054620004499062000601565b90600052602060002090601f0160209004810192826200046d5760008555620004b9565b82601f106200048857805160ff1916838001178555620004b9565b82800160010185558215620004b9579182015b82811115620004b85782518255916020019190600101906200049b565b5b509050620004c89190620004cc565b5090565b5b80821115620004e7576000816000905550600101620004cd565b5090565b6000620004fa600183620005f6565b91507f50000000000000000000000000000000000000000000000000000000000000006000830152600182019050919050565b60006200053c600183620005f6565b91507f53000000000000000000000000000000000000000000000000000000000000006000830152600182019050919050565b60006200057e600183620005f6565b91507f52000000000000000000000000000000000000000000000000000000000000006000830152600182019050919050565b6000620005be82620004eb565b9150819050919050565b6000620005d5826200052d565b9150819050919050565b6000620005ec826200056f565b9150819050919050565b600081905092915050565b600060028204905060018216806200061a57607f821691505b6020821081141562000631576200063062000637565b5b50919050565b7f4e487b7100000000000000000000000000000000000000000000000000000000600052602260045260246000fd5b613dd880620006766000396000f3fe608060405234801561001057600080fd5b50600436106101155760003560e01c80638592b701116100a2578063ab08a84a11610071578063ab08a84a146102de578063d30895e4146102e8578063e985e9c514610306578063f242432a14610336578063f96570eb1461035257610115565b80638592b7011461027e57806387a856561461029a5780638e7ea5b2146102a4578063a22cb465146102c257610115565b80632eb2c2d6116100e95780632eb2c2d6146101c8578063410346b3146101e45780634e1273f41461021457806359a5f12d1461024457806369a6894a1461026257610115565b8062fdd58e1461011a57806301ffc9a71461014a5780630572b0cc1461017a5780630e89341c14610198575b600080fd5b610134600480360381019061012f9190612b2a565b61036e565b6040516101419190613869565b60405180910390f35b610164600480360381019061015f9190612bd2565b610437565b60405161017191906135ec565b60405180910390f35b610182610519565b60405161018f9190613607565b60405180910390f35b6101b260048036038101906101ad9190612c65565b61074c565b6040516101bf9190613607565b60405180910390f35b6101e260048036038101906101dd91906129a0565b6107e0565b005b6101fe60048036038101906101f9919061293b565b610881565b60405161020b9190613607565b60405180910390f35b61022e60048036038101906102299190612b66565b610921565b60405161023b9190613593565b60405180910390f35b61024c610ad2565b60405161025991906134b6565b60405180910390f35b61027c60048036038101906102779190612964565b610af8565b005b61029860048036038101906102939190612c24565b610bd8565b005b6102a2610de4565b005b6102ac610f64565b6040516102b99190613607565b60405180910390f35b6102dc60048036038101906102d79190612aee565b611143565b005b6102e66112c4565b005b6102f0611444565b6040516102fd91906134b6565b60405180910390f35b610320600480360381019061031b9190612964565b61146a565b60405161032d91906135ec565b60405180910390f35b610350600480360381019061034b9190612a5f565b6114fe565b005b61036c60048036038101906103679190612c24565b61159f565b005b60008073ffffffffffffffffffffffffffffffffffffffff168373ffffffffffffffffffffffffffffffffffffffff1614156103df576040517f08c379a00000000000000000000000000000000000000000000000000000000081526004016103d6906136a9565b60405180910390fd5b60008083815260200190815260200160002060008473ffffffffffffffffffffffffffffffffffffffff1673ffffffffffffffffffffffffffffffffffffffff16815260200190815260200160002054905092915050565b60007fd9b67a26000000000000000000000000000000000000000000000000000000007bffffffffffffffffffffffffffffffffffffffffffffffffffffffff1916827bffffffffffffffffffffffffffffffffffffffffffffffffffffffff1916148061050257507f0e89341c000000000000000000000000000000000000000000000000000000007bffffffffffffffffffffffffffffffffffffffffffffffffffffffff1916827bffffffffffffffffffffffffffffffffffffffffffffffffffffffff1916145b806105125750610511826117ab565b5b9050919050565b60606000600660076000600360009054906101000a900473ffffffffffffffffffffffffffffffffffffffff1673ffffffffffffffffffffffffffffffffffffffff1673ffffffffffffffffffffffffffffffffffffffff16815260200190815260200160002060405161058d919061349f565b908152602001604051809103902060076000600460009054906101000a900473ffffffffffffffffffffffffffffffffffffffff1673ffffffffffffffffffffffffffffffffffffffff1673ffffffffffffffffffffffffffffffffffffffff168152602001908152602001600020604051610609919061349f565b908152602001604051809103902060009054906101000a900460ff16905060018160ff16141561069657610695600460009054906101000a900473ffffffffffffffffffffffffffffffffffffffff16600360009054906101000a900473ffffffffffffffffffffffffffffffffffffffff166004600160405180602001604052806000815250611815565b5b60028160ff16141561070957610704600360009054906101000a900473ffffffffffffffffffffffffffffffffffffffff16600460009054906101000a900473ffffffffffffffffffffffffffffffffffffffff166004600160405180602001604052806000815250611815565b610747565b6040518060400160405280600981526020017f746965206d617463680000000000000000000000000000000000000000000000815250915050610749565b505b90565b60606002805461075b90613b40565b80601f016020809104026020016040519081016040528092919081815260200182805461078790613b40565b80156107d45780601f106107a9576101008083540402835291602001916107d4565b820191906000526020600020905b8154815290600101906020018083116107b757829003601f168201915b50505050509050919050565b6107e8611a97565b73ffffffffffffffffffffffffffffffffffffffff168573ffffffffffffffffffffffffffffffffffffffff16148061082e575061082d85610828611a97565b61146a565b5b61086d576040517f08c379a000000000000000000000000000000000000000000000000000000000815260040161086490613729565b60405180910390fd5b61087a8585858585611a9f565b5050505050565b600760205280600052604060002060009150905080546108a090613b40565b80601f01602080910402602001604051908101604052809291908181526020018280546108cc90613b40565b80156109195780601f106108ee57610100808354040283529160200191610919565b820191906000526020600020905b8154815290600101906020018083116108fc57829003601f168201915b505050505081565b60608151835114610967576040517f08c379a000000000000000000000000000000000000000000000000000000000815260040161095e906137e9565b60405180910390fd5b6000835167ffffffffffffffff8111156109aa577f4e487b7100000000000000000000000000000000000000000000000000000000600052604160045260246000fd5b6040519080825280602002602001820160405280156109d85781602001602082028036833780820191505090505b50905060005b8451811015610ac757610a71858281518110610a23577f4e487b7100000000000000000000000000000000000000000000000000000000600052603260045260246000fd5b6020026020010151858381518110610a64577f4e487b7100000000000000000000000000000000000000000000000000000000600052603260045260246000fd5b602002602001015161036e565b828281518110610aaa577f4e487b7100000000000000000000000000000000000000000000000000000000600052603260045260246000fd5b60200260200101818152505080610ac090613b72565b90506109de565b508091505092915050565b600460009054906101000a900473ffffffffffffffffffffffffffffffffffffffff1681565b600560009054906101000a900473ffffffffffffffffffffffffffffffffffffffff1673ffffffffffffffffffffffffffffffffffffffff163373ffffffffffffffffffffffffffffffffffffffff1614610b5257600080fd5b81600360006101000a81548173ffffffffffffffffffffffffffffffffffffffff021916908373ffffffffffffffffffffffffffffffffffffffff16021790555080600460006101000a81548173ffffffffffffffffffffffffffffffffffffffff021916908373ffffffffffffffffffffffffffffffffffffffff1602179055505050565b600460009054906101000a900473ffffffffffffffffffffffffffffffffffffffff1673ffffffffffffffffffffffffffffffffffffffff163373ffffffffffffffffffffffffffffffffffffffff1614610c68576040517f08c379a0000000000000000000000000000000000000000000000000000000008152600401610c5f906137a9565b60405180910390fd5b6002600560189054906101000a900460ff1660ff1614610cbd576040517f08c379a0000000000000000000000000000000000000000000000000000000008152600401610cb490613749565b60405180910390fd5b6003600560179054906101000a900460ff1660ff161115610d13576040517f08c379a0000000000000000000000000000000000000000000000000000000008152600401610d0a90613809565b60405180910390fd5b80600760003373ffffffffffffffffffffffffffffffffffffffff1673ffffffffffffffffffffffffffffffffffffffff1681526020019081526020016000209080519060200190610d66929190612633565b50610d7333600180611dff565b610d803360026001611dff565b610d8d3360036001611dff565b6005601781819054906101000a900460ff1680929190610dac90613bbb565b91906101000a81548160ff021916908360ff160217905550506001600560186101000a81548160ff021916908360ff16021790555050565b60001515600560159054906101000a900460ff16151514610e3a576040517f08c379a0000000000000000000000000000000000000000000000000000000008152600401610e3190613669565b60405180910390fd5b600460009054906101000a900473ffffffffffffffffffffffffffffffffffffffff1673ffffffffffffffffffffffffffffffffffffffff163373ffffffffffffffffffffffffffffffffffffffff1614610eca576040517f08c379a0000000000000000000000000000000000000000000000000000000008152600401610ec190613689565b60405180910390fd5b610eea33600160ff1660036040518060200160405280600081525061201c565b610f0a33600260ff1660036040518060200160405280600081525061201c565b610f2a33600360ff1660036040518060200160405280600081525061201c565b610f4733600460066040518060200160405280600081525061201c565b6001600560156101000a81548160ff021916908315150217905550565b60606000600660076000600360009054906101000a900473ffffffffffffffffffffffffffffffffffffffff1673ffffffffffffffffffffffffffffffffffffffff1673ffffffffffffffffffffffffffffffffffffffff168152602001908152602001600020604051610fd8919061349f565b908152602001604051809103902060076000600460009054906101000a900473ffffffffffffffffffffffffffffffffffffffff1673ffffffffffffffffffffffffffffffffffffffff1673ffffffffffffffffffffffffffffffffffffffff168152602001908152602001600020604051611054919061349f565b908152602001604051809103902060009054906101000a900460ff16905060018160ff1614156110bc576040518060400160405280600c81526020017f506c61796572203120776f6e0000000000000000000000000000000000000000815250915050611140565b60028160ff161415611106576040518060400160405280600c81526020017f506c61796572203220776f6e0000000000000000000000000000000000000000815250915050611140565b6040518060400160405280600981526020017f746965206d6174636800000000000000000000000000000000000000000000008152509150505b90565b8173ffffffffffffffffffffffffffffffffffffffff16611162611a97565b73ffffffffffffffffffffffffffffffffffffffff1614156111b9576040517f08c379a00000000000000000000000000000000000000000000000000000000081526004016111b0906137c9565b60405180910390fd5b80600160006111c6611a97565b73ffffffffffffffffffffffffffffffffffffffff1673ffffffffffffffffffffffffffffffffffffffff16815260200190815260200160002060008473ffffffffffffffffffffffffffffffffffffffff1673ffffffffffffffffffffffffffffffffffffffff16815260200190815260200160002060006101000a81548160ff0219169083151502179055508173ffffffffffffffffffffffffffffffffffffffff16611273611a97565b73ffffffffffffffffffffffffffffffffffffffff167f17307eab39ab6107e8899845ad3d59bd9653f200f220920489ca2b5937696c31836040516112b891906135ec565b60405180910390a35050565b60001515600560149054906101000a900460ff1615151461131a576040517f08c379a000000000000000000000000000000000000000000000000000000000815260040161131190613669565b60405180910390fd5b600360009054906101000a900473ffffffffffffffffffffffffffffffffffffffff1673ffffffffffffffffffffffffffffffffffffffff163373ffffffffffffffffffffffffffffffffffffffff16146113aa576040517f08c379a00000000000000000000000000000000000000000000000000000000081526004016113a1906137a9565b60405180910390fd5b6113ca33600160ff1660036040518060200160405280600081525061201c565b6113ea33600260ff1660036040518060200160405280600081525061201c565b61140a33600360ff1660036040518060200160405280600081525061201c565b61142733600460066040518060200160405280600081525061201c565b6001600560146101000a81548160ff021916908315150217905550565b600360009054906101000a900473ffffffffffffffffffffffffffffffffffffffff1681565b6000600160008473ffffffffffffffffffffffffffffffffffffffff1673ffffffffffffffffffffffffffffffffffffffff16815260200190815260200160002060008373ffffffffffffffffffffffffffffffffffffffff1673ffffffffffffffffffffffffffffffffffffffff16815260200190815260200160002060009054906101000a900460ff16905092915050565b611506611a97565b73ffffffffffffffffffffffffffffffffffffffff168573ffffffffffffffffffffffffffffffffffffffff16148061154c575061154b85611546611a97565b61146a565b5b61158b576040517f08c379a0000000000000000000000000000000000000000000000000000000008152600401611582906136e9565b60405180910390fd5b6115988585858585611815565b5050505050565b600360009054906101000a900473ffffffffffffffffffffffffffffffffffffffff1673ffffffffffffffffffffffffffffffffffffffff163373ffffffffffffffffffffffffffffffffffffffff161461162f576040517f08c379a0000000000000000000000000000000000000000000000000000000008152600401611626906137a9565b60405180910390fd5b6001600560189054906101000a900460ff1660ff1614611684576040517f08c379a000000000000000000000000000000000000000000000000000000000815260040161167b90613749565b60405180910390fd5b6003600560169054906101000a900460ff1660ff1611156116da576040517f08c379a00000000000000000000000000000000000000000000000000000000081526004016116d190613809565b60405180910390fd5b80600760003373ffffffffffffffffffffffffffffffffffffffff1673ffffffffffffffffffffffffffffffffffffffff168152602001908152602001600020908051906020019061172d929190612633565b5061173a33600180611dff565b6117473360026001611dff565b6117543360036001611dff565b6005601681819054906101000a900460ff168092919061177390613bbb565b91906101000a81548160ff021916908360ff160217905550506002600560186101000a81548160ff021916908360ff16021790555050565b60007f01ffc9a7000000000000000000000000000000000000000000000000000000007bffffffffffffffffffffffffffffffffffffffffffffffffffffffff1916827bffffffffffffffffffffffffffffffffffffffffffffffffffffffff1916149050919050565b600073ffffffffffffffffffffffffffffffffffffffff168473ffffffffffffffffffffffffffffffffffffffff161415611885576040517f08c379a000000000000000000000000000000000000000000000000000000000815260040161187c90613709565b60405180910390fd5b600061188f611a97565b90506118af8187876118a0886121b2565b6118a9886121b2565b87612278565b600080600086815260200190815260200160002060008873ffffffffffffffffffffffffffffffffffffffff1673ffffffffffffffffffffffffffffffffffffffff16815260200190815260200160002054905083811015611946576040517f08c379a000000000000000000000000000000000000000000000000000000000815260040161193d90613789565b60405180910390fd5b83810360008087815260200190815260200160002060008973ffffffffffffffffffffffffffffffffffffffff1673ffffffffffffffffffffffffffffffffffffffff168152602001908152602001600020819055508360008087815260200190815260200160002060008873ffffffffffffffffffffffffffffffffffffffff1673ffffffffffffffffffffffffffffffffffffffff16815260200190815260200160002060008282546119fb9190613a27565b925050819055508573ffffffffffffffffffffffffffffffffffffffff168773ffffffffffffffffffffffffffffffffffffffff168373ffffffffffffffffffffffffffffffffffffffff167fc3d58168c5ae7397731d063d5bbf3d657854427343f4c083240f7aacaa2d0f628888604051611a78929190613884565b60405180910390a4611a8e828888888888612280565b50505050505050565b600033905090565b8151835114611ae3576040517f08c379a0000000000000000000000000000000000000000000000000000000008152600401611ada90613829565b60405180910390fd5b600073ffffffffffffffffffffffffffffffffffffffff168473ffffffffffffffffffffffffffffffffffffffff161415611b53576040517f08c379a0000000000000000000000000000000000000000000000000000000008152600401611b4a90613709565b60405180910390fd5b6000611b5d611a97565b9050611b6d818787878787612278565b60005b8451811015611d6a576000858281518110611bb4577f4e487b7100000000000000000000000000000000000000000000000000000000600052603260045260246000fd5b602002602001015190506000858381518110611bf9577f4e487b7100000000000000000000000000000000000000000000000000000000600052603260045260246000fd5b60200260200101519050600080600084815260200190815260200160002060008b73ffffffffffffffffffffffffffffffffffffffff1673ffffffffffffffffffffffffffffffffffffffff16815260200190815260200160002054905081811015611c9a576040517f08c379a0000000000000000000000000000000000000000000000000000000008152600401611c9190613789565b60405180910390fd5b81810360008085815260200190815260200160002060008c73ffffffffffffffffffffffffffffffffffffffff1673ffffffffffffffffffffffffffffffffffffffff168152602001908152602001600020819055508160008085815260200190815260200160002060008b73ffffffffffffffffffffffffffffffffffffffff1673ffffffffffffffffffffffffffffffffffffffff1681526020019081526020016000206000828254611d4f9190613a27565b9250508190555050505080611d6390613b72565b9050611b70565b508473ffffffffffffffffffffffffffffffffffffffff168673ffffffffffffffffffffffffffffffffffffffff168273ffffffffffffffffffffffffffffffffffffffff167f4a39dc06d4c0dbc64b70af90fd698a233a518aa5d07e595d983b8c0526c8f7fb8787604051611de19291906135b5565b60405180910390a4611df7818787878787612450565b505050505050565b600073ffffffffffffffffffffffffffffffffffffffff168373ffffffffffffffffffffffffffffffffffffffff161415611e6f576040517f08c379a0000000000000000000000000000000000000000000000000000000008152600401611e6690613769565b60405180910390fd5b6000611e79611a97565b9050611ea981856000611e8b876121b2565b611e94876121b2565b60405180602001604052806000815250612278565b600080600085815260200190815260200160002060008673ffffffffffffffffffffffffffffffffffffffff1673ffffffffffffffffffffffffffffffffffffffff16815260200190815260200160002054905082811015611f40576040517f08c379a0000000000000000000000000000000000000000000000000000000008152600401611f37906136c9565b60405180910390fd5b82810360008086815260200190815260200160002060008773ffffffffffffffffffffffffffffffffffffffff1673ffffffffffffffffffffffffffffffffffffffff16815260200190815260200160002081905550600073ffffffffffffffffffffffffffffffffffffffff168573ffffffffffffffffffffffffffffffffffffffff168373ffffffffffffffffffffffffffffffffffffffff167fc3d58168c5ae7397731d063d5bbf3d657854427343f4c083240f7aacaa2d0f62878760405161200d929190613884565b60405180910390a45050505050565b600073ffffffffffffffffffffffffffffffffffffffff168473ffffffffffffffffffffffffffffffffffffffff16141561208c576040517f08c379a000000000000000000000000000000000000000000000000000000000815260040161208390613849565b60405180910390fd5b6000612096611a97565b90506120b7816000876120a8886121b2565b6120b1886121b2565b87612278565b8260008086815260200190815260200160002060008773ffffffffffffffffffffffffffffffffffffffff1673ffffffffffffffffffffffffffffffffffffffff16815260200190815260200160002060008282546121169190613a27565b925050819055508473ffffffffffffffffffffffffffffffffffffffff16600073ffffffffffffffffffffffffffffffffffffffff168273ffffffffffffffffffffffffffffffffffffffff167fc3d58168c5ae7397731d063d5bbf3d657854427343f4c083240f7aacaa2d0f628787604051612194929190613884565b60405180910390a46121ab81600087878787612280565b5050505050565b60606000600167ffffffffffffffff8111156121f7577f4e487b7100000000000000000000000000000000000000000000000000000000600052604160045260246000fd5b6040519080825280602002602001820160405280156122255781602001602082028036833780820191505090505b5090508281600081518110612263577f4e487b7100000000000000000000000000000000000000000000000000000000600052603260045260246000fd5b60200260200101818152505080915050919050565b505050505050565b61229f8473ffffffffffffffffffffffffffffffffffffffff16612620565b15612448578373ffffffffffffffffffffffffffffffffffffffff1663f23a6e6187878686866040518663ffffffff1660e01b81526004016122e5959493929190613539565b602060405180830381600087803b1580156122ff57600080fd5b505af192505050801561233057506040513d601f19601f8201168201806040525081019061232d9190612bfb565b60015b6123bf5761233c613c90565b806123475750612384565b806040517f08c379a000000000000000000000000000000000000000000000000000000000815260040161237b9190613607565b60405180910390fd5b6040517f08c379a00000000000000000000000000000000000000000000000000000000081526004016123b690613629565b60405180910390fd5b63f23a6e6160e01b7bffffffffffffffffffffffffffffffffffffffffffffffffffffffff1916817bffffffffffffffffffffffffffffffffffffffffffffffffffffffff191614612446576040517f08c379a000000000000000000000000000000000000000000000000000000000815260040161243d90613649565b60405180910390fd5b505b505050505050565b61246f8473ffffffffffffffffffffffffffffffffffffffff16612620565b15612618578373ffffffffffffffffffffffffffffffffffffffff1663bc197c8187878686866040518663ffffffff1660e01b81526004016124b59594939291906134d1565b602060405180830381600087803b1580156124cf57600080fd5b505af192505050801561250057506040513d601f19601f820116820180604052508101906124fd9190612bfb565b60015b61258f5761250c613c90565b806125175750612554565b806040517f08c379a000000000000000000000000000000000000000000000000000000000815260040161254b9190613607565b60405180910390fd5b6040517f08c379a000000000000000000000000000000000000000000000000000000000815260040161258690613629565b60405180910390fd5b63bc197c8160e01b7bffffffffffffffffffffffffffffffffffffffffffffffffffffffff1916817bffffffffffffffffffffffffffffffffffffffffffffffffffffffff191614612616576040517f08c379a000000000000000000000000000000000000000000000000000000000815260040161260d90613649565b60405180910390fd5b505b505050505050565b600080823b905060008111915050919050565b82805461263f90613b40565b90600052602060002090601f01602090048101928261266157600085556126a8565b82601f1061267a57805160ff19168380011785556126a8565b828001600101855582156126a8579182015b828111156126a757825182559160200191906001019061268c565b5b5090506126b591906126b9565b5090565b5b808211156126d25760008160009055506001016126ba565b5090565b60006126e96126e4846138de565b6138ad565b9050808382526020820190508285602086028201111561270857600080fd5b60005b85811015612738578161271e888261282a565b84526020840193506020830192505060018101905061270b565b5050509392505050565b60006127556127508461390a565b6138ad565b9050808382526020820190508285602086028201111561277457600080fd5b60005b858110156127a4578161278a8882612926565b845260208401935060208301925050600181019050612777565b5050509392505050565b60006127c16127bc84613936565b6138ad565b9050828152602081018484840111156127d957600080fd5b6127e4848285613afe565b509392505050565b60006127ff6127fa84613966565b6138ad565b90508281526020810184848401111561281757600080fd5b612822848285613afe565b509392505050565b60008135905061283981613d46565b92915050565b600082601f83011261285057600080fd5b81356128608482602086016126d6565b91505092915050565b600082601f83011261287a57600080fd5b813561288a848260208601612742565b91505092915050565b6000813590506128a281613d5d565b92915050565b6000813590506128b781613d74565b92915050565b6000815190506128cc81613d74565b92915050565b600082601f8301126128e357600080fd5b81356128f38482602086016127ae565b91505092915050565b600082601f83011261290d57600080fd5b813561291d8482602086016127ec565b91505092915050565b60008135905061293581613d8b565b92915050565b60006020828403121561294d57600080fd5b600061295b8482850161282a565b91505092915050565b6000806040838503121561297757600080fd5b60006129858582860161282a565b92505060206129968582860161282a565b9150509250929050565b600080600080600060a086880312156129b857600080fd5b60006129c68882890161282a565b95505060206129d78882890161282a565b945050604086013567ffffffffffffffff8111156129f457600080fd5b612a0088828901612869565b935050606086013567ffffffffffffffff811115612a1d57600080fd5b612a2988828901612869565b925050608086013567ffffffffffffffff811115612a4657600080fd5b612a52888289016128d2565b9150509295509295909350565b600080600080600060a08688031215612a7757600080fd5b6000612a858882890161282a565b9550506020612a968882890161282a565b9450506040612aa788828901612926565b9350506060612ab888828901612926565b925050608086013567ffffffffffffffff811115612ad557600080fd5b612ae1888289016128d2565b9150509295509295909350565b60008060408385031215612b0157600080fd5b6000612b0f8582860161282a565b9250506020612b2085828601612893565b9150509250929050565b60008060408385031215612b3d57600080fd5b6000612b4b8582860161282a565b9250506020612b5c85828601612926565b9150509250929050565b60008060408385031215612b7957600080fd5b600083013567ffffffffffffffff811115612b9357600080fd5b612b9f8582860161283f565b925050602083013567ffffffffffffffff811115612bbc57600080fd5b612bc885828601612869565b9150509250929050565b600060208284031215612be457600080fd5b6000612bf2848285016128a8565b91505092915050565b600060208284031215612c0d57600080fd5b6000612c1b848285016128bd565b91505092915050565b600060208284031215612c3657600080fd5b600082013567ffffffffffffffff811115612c5057600080fd5b612c5c848285016128fc565b91505092915050565b600060208284031215612c7757600080fd5b6000612c8584828501612926565b91505092915050565b6000612c9a8383613481565b60208301905092915050565b612caf81613a7d565b82525050565b6000612cc0826139bb565b612cca81856139e9565b9350612cd583613996565b8060005b83811015612d06578151612ced8882612c8e565b9750612cf8836139dc565b925050600181019050612cd9565b5085935050505092915050565b612d1c81613a8f565b82525050565b6000612d2d826139c6565b612d3781856139fa565b9350612d47818560208601613b0d565b612d5081613c72565b840191505092915050565b6000612d66826139d1565b612d708185613a0b565b9350612d80818560208601613b0d565b612d8981613c72565b840191505092915050565b60008154612da181613b40565b612dab8186613a1c565b94506001821660008114612dc65760018114612dd757612e0a565b60ff19831686528186019350612e0a565b612de0856139a6565b60005b83811015612e0257815481890152600182019150602081019050612de3565b838801955050505b50505092915050565b6000612e20603483613a0b565b91507f455243313135353a207472616e7366657220746f206e6f6e204552433131353560008301527f526563656976657220696d706c656d656e7465720000000000000000000000006020830152604082019050919050565b6000612e86602883613a0b565b91507f455243313135353a204552433131353552656365697665722072656a6563746560008301527f6420746f6b656e730000000000000000000000000000000000000000000000006020830152604082019050919050565b6000612eec600e83613a0b565b91507f416c7265616479206d696e7465640000000000000000000000000000000000006000830152602082019050919050565b6000612f2c601383613a0b565b91507f596f75277265206e6f7420706c617965722032000000000000000000000000006000830152602082019050919050565b6000612f6c602b83613a0b565b91507f455243313135353a2062616c616e636520717565727920666f7220746865207a60008301527f65726f20616464726573730000000000000000000000000000000000000000006020830152604082019050919050565b6000612fd2602483613a0b565b91507f455243313135353a206275726e20616d6f756e7420657863656564732062616c60008301527f616e6365000000000000000000000000000000000000000000000000000000006020830152604082019050919050565b6000613038602983613a0b565b91507f455243313135353a2063616c6c6572206973206e6f74206f776e6572206e6f7260008301527f20617070726f76656400000000000000000000000000000000000000000000006020830152604082019050919050565b600061309e602583613a0b565b91507f455243313135353a207472616e7366657220746f20746865207a65726f20616460008301527f64726573730000000000000000000000000000000000000000000000000000006020830152604082019050919050565b6000613104603283613a0b565b91507f455243313135353a207472616e736665722063616c6c6572206973206e6f742060008301527f6f776e6572206e6f7220617070726f76656400000000000000000000000000006020830152604082019050919050565b600061316a600d83613a0b565b91507f4e6f7420796f7572207475726e000000000000000000000000000000000000006000830152602082019050919050565b60006131aa602383613a0b565b91507f455243313135353a206275726e2066726f6d20746865207a65726f206164647260008301527f65737300000000000000000000000000000000000000000000000000000000006020830152604082019050919050565b6000613210602a83613a0b565b91507f455243313135353a20696e73756666696369656e742062616c616e636520666f60008301527f72207472616e73666572000000000000000000000000000000000000000000006020830152604082019050919050565b6000613276601383613a0b565b91507f596f75277265206e6f7420706c617965722031000000000000000000000000006000830152602082019050919050565b60006132b6602983613a0b565b91507f455243313135353a2073657474696e6720617070726f76616c2073746174757360008301527f20666f722073656c6600000000000000000000000000000000000000000000006020830152604082019050919050565b600061331c602983613a0b565b91507f455243313135353a206163636f756e747320616e6420696473206c656e67746860008301527f206d69736d6174636800000000000000000000000000000000000000000000006020830152604082019050919050565b6000613382601183613a0b565b91507f3320726f756e64732066696e69736865640000000000000000000000000000006000830152602082019050919050565b60006133c2602883613a0b565b91507f455243313135353a2069647320616e6420616d6f756e7473206c656e6774682060008301527f6d69736d617463680000000000000000000000000000000000000000000000006020830152604082019050919050565b6000613428602183613a0b565b91507f455243313135353a206d696e7420746f20746865207a65726f2061646472657360008301527f73000000000000000000000000000000000000000000000000000000000000006020830152604082019050919050565b61348a81613ae7565b82525050565b61349981613ae7565b82525050565b60006134ab8284612d94565b915081905092915050565b60006020820190506134cb6000830184612ca6565b92915050565b600060a0820190506134e66000830188612ca6565b6134f36020830187612ca6565b81810360408301526135058186612cb5565b905081810360608301526135198185612cb5565b9050818103608083015261352d8184612d22565b90509695505050505050565b600060a08201905061354e6000830188612ca6565b61355b6020830187612ca6565b6135686040830186613490565b6135756060830185613490565b81810360808301526135878184612d22565b90509695505050505050565b600060208201905081810360008301526135ad8184612cb5565b905092915050565b600060408201905081810360008301526135cf8185612cb5565b905081810360208301526135e38184612cb5565b90509392505050565b60006020820190506136016000830184612d13565b92915050565b600060208201905081810360008301526136218184612d5b565b905092915050565b6000602082019050818103600083015261364281612e13565b9050919050565b6000602082019050818103600083015261366281612e79565b9050919050565b6000602082019050818103600083015261368281612edf565b9050919050565b600060208201905081810360008301526136a281612f1f565b9050919050565b600060208201905081810360008301526136c281612f5f565b9050919050565b600060208201905081810360008301526136e281612fc5565b9050919050565b600060208201905081810360008301526137028161302b565b9050919050565b6000602082019050818103600083015261372281613091565b9050919050565b60006020820190508181036000830152613742816130f7565b9050919050565b600060208201905081810360008301526137628161315d565b9050919050565b600060208201905081810360008301526137828161319d565b9050919050565b600060208201905081810360008301526137a281613203565b9050919050565b600060208201905081810360008301526137c281613269565b9050919050565b600060208201905081810360008301526137e2816132a9565b9050919050565b600060208201905081810360008301526138028161330f565b9050919050565b6000602082019050818103600083015261382281613375565b9050919050565b60006020820190508181036000830152613842816133b5565b9050919050565b600060208201905081810360008301526138628161341b565b9050919050565b600060208201905061387e6000830184613490565b92915050565b60006040820190506138996000830185613490565b6138a66020830184613490565b9392505050565b6000604051905081810181811067ffffffffffffffff821117156138d4576138d3613c43565b5b8060405250919050565b600067ffffffffffffffff8211156138f9576138f8613c43565b5b602082029050602081019050919050565b600067ffffffffffffffff82111561392557613924613c43565b5b602082029050602081019050919050565b600067ffffffffffffffff82111561395157613950613c43565b5b601f19601f8301169050602081019050919050565b600067ffffffffffffffff82111561398157613980613c43565b5b601f19601f8301169050602081019050919050565b6000819050602082019050919050565b60008190508160005260206000209050919050565b600081519050919050565b600081519050919050565b600081519050919050565b6000602082019050919050565b600082825260208201905092915050565b600082825260208201905092915050565b600082825260208201905092915050565b600081905092915050565b6000613a3282613ae7565b9150613a3d83613ae7565b9250827fffffffffffffffffffffffffffffffffffffffffffffffffffffffffffffffff03821115613a7257613a71613be5565b5b828201905092915050565b6000613a8882613ac7565b9050919050565b60008115159050919050565b60007fffffffff0000000000000000000000000000000000000000000000000000000082169050919050565b600073ffffffffffffffffffffffffffffffffffffffff82169050919050565b6000819050919050565b600060ff82169050919050565b82818337600083830152505050565b60005b83811015613b2b578082015181840152602081019050613b10565b83811115613b3a576000848401525b50505050565b60006002820490506001821680613b5857607f821691505b60208210811415613b6c57613b6b613c14565b5b50919050565b6000613b7d82613ae7565b91507fffffffffffffffffffffffffffffffffffffffffffffffffffffffffffffffff821415613bb057613baf613be5565b5b600182019050919050565b6000613bc682613af1565b915060ff821415613bda57613bd9613be5565b5b600182019050919050565b7f4e487b7100000000000000000000000000000000000000000000000000000000600052601160045260246000fd5b7f4e487b7100000000000000000000000000000000000000000000000000000000600052602260045260246000fd5b7f4e487b7100000000000000000000000000000000000000000000000000000000600052604160045260246000fd5b6000601f19601f8301169050919050565b60008160e01c9050919050565b600060443d1015613ca057613d43565b60046000803e613cb1600051613c83565b6308c379a08114613cc25750613d43565b60405160043d036004823e80513d602482011167ffffffffffffffff82111715613cee57505050613d43565b808201805167ffffffffffffffff811115613d0d575050505050613d43565b8060208301013d8501811115613d2857505050505050613d43565b613d3182613c72565b60208401016040528296505050505050505b90565b613d4f81613a7d565b8114613d5a57600080fd5b50565b613d6681613a8f565b8114613d7157600080fd5b50565b613d7d81613a9b565b8114613d8857600080fd5b50565b613d9481613ae7565b8114613d9f57600080fd5b5056fea2646970667358221220c2696a5f31d7eec06f61d33dbd6426a081a6a31e8700dd02e0f75ca4321f9da364736f6c63430008000033",
  "immutableReferences": {},
  "source": "pragma solidity ^0.8.0;\r\n\r\nimport \"@openzeppelin/contracts/token/ERC1155/ERC1155.sol\";\r\n\r\ncontract RPS is ERC1155 {\r\n    \r\n    uint8 constant ROCK = 1;\r\n    uint8 constant PAPER = 2;\r\n    uint8 constant SCISSORS = 3;\r\n    \r\n    uint256 constant TOKEN = 4;\r\n    \r\n    address public player1;\r\n    address public player2;\r\n    address owner = msg.sender;\r\n    \r\n    bool  onlyOnce_1 = false;\r\n    bool  onlyOnce_2 =false;\r\n    \r\n    uint8 player1_roundno = 0;\r\n    uint8 player2_roundno = 0;\r\n    \r\n    uint8 turn = 1;\r\n    \r\n    mapping (string => mapping(string => uint8)) private results;\r\n    mapping (address => string) public choices;\r\n    \r\n    constructor() ERC1155(\"https://test.json\") {\r\n        results[\"R\"][\"R\"] = 0;\r\n        results[\"R\"][\"P\"] = 2;\r\n        results[\"R\"][\"S\"] = 1;\r\n        results[\"P\"][\"R\"] = 1;\r\n        results[\"P\"][\"P\"] = 0;\r\n        results[\"P\"][\"S\"] = 2;\r\n        results[\"S\"][\"R\"] = 2;\r\n        results[\"S\"][\"P\"] = 1;\r\n        results[\"S\"][\"S\"] = 0;\r\n\r\n    }\r\n    \r\n    function assignPlayers(address _player1, address _player2) public {\r\n        require(msg.sender == owner);\r\n        player1 = _player1;\r\n        player2 = _player2;\r\n    }\r\n    \r\n    function player1Mint() public {\r\n        require(onlyOnce_1 == false, \"Already minted\");\r\n        require(msg.sender == player1,\"You're not player 1\");\r\n        _mint(msg.sender, ROCK, 3 , \"\");\r\n        _mint(msg.sender, PAPER, 3 , \"\");\r\n        _mint(msg.sender, SCISSORS, 3 , \"\");\r\n        \r\n        _mint(msg.sender, TOKEN, 6, \"\");\r\n        \r\n        onlyOnce_1 = true;\r\n    }\r\n    \r\n    function player2Mint() public {\r\n        require(onlyOnce_2 == false, \"Already minted\");\r\n        require(msg.sender == player2,\"You're not player 2\");\r\n        _mint(msg.sender, ROCK, 3 , \"\");\r\n        _mint(msg.sender, PAPER, 3 , \"\");\r\n        _mint(msg.sender, SCISSORS, 3 , \"\");\r\n        \r\n        _mint(msg.sender, TOKEN, 6, \"\");\r\n        \r\n        onlyOnce_2 = true;\r\n    }\r\n    \r\n    \r\n    function play_player1(string memory choice) public {\r\n        require(msg.sender == player1, \"You're not player 1\");\r\n        require(turn == 1, \"Not your turn\");\r\n        require(player1_roundno <= 3, \"3 rounds finished\");\r\n        choices[msg.sender] = choice;\r\n        _burn(msg.sender,1 ,1);\r\n        _burn(msg.sender,2 ,1);\r\n        _burn(msg.sender,3 ,1);\r\n        \r\n        player1_roundno++;\r\n        turn = 2;\r\n    }\r\n    \r\n    function play_player2(string memory choice) public {\r\n        require(msg.sender == player2, \"You're not player 1\");\r\n        require(turn == 2, \"Not your turn\");\r\n        require(player2_roundno <= 3, \"3 rounds finished\");\r\n        choices[msg.sender] = choice;\r\n        _burn(msg.sender,1 ,1);\r\n        _burn(msg.sender,2 ,1);\r\n        _burn(msg.sender,3 ,1);\r\n        \r\n        player2_roundno++;\r\n        turn = 1;\r\n    }\r\n    \r\n    function getWinner() public view returns (string memory) {\r\n        \r\n        uint8 result = results[choices[player1]][choices[player2]];\r\n        \r\n        if (result == 1) {\r\n            return \"Player 1 won\";\r\n        }\r\n        if (result == 2) {\r\n            return \"Player 2 won\";\r\n        }\r\n        else{\r\n            return \"tie match\";\r\n        }\r\n    }    \r\n    \r\n    function getRewards() public returns (string memory) {\r\n        \r\n        uint8 result = results[choices[player1]][choices[player2]];\r\n        \r\n        if (result == 1) {\r\n            _safeTransferFrom(player2, player1, 4, 1, \"\");\r\n        }\r\n        if (result == 2) {\r\n            _safeTransferFrom(player1, player2, 4, 1, \"\");\r\n        }\r\n        else{\r\n            return \"tie match\";\r\n        }\r\n    }    \r\n    \r\n}",
  "sourcePath": "G:/Solidity Projects/RPS/contracts/RPS.sol",
  "compiler": {
    "name": "solc",
    "version": "0.8.0+commit.c7dfd78e.Emscripten.clang"
  },
  "schemaVersion": "3.3.4",
  "updatedAt": "2021-08-05T11:11:59.372Z",
  "networkType": "ethereum",
  "devdoc": {
    "kind": "dev",
    "methods": {
      "balanceOf(address,uint256)": {
        "details": "See {IERC1155-balanceOf}. Requirements: - `account` cannot be the zero address."
      },
      "balanceOfBatch(address[],uint256[])": {
        "details": "See {IERC1155-balanceOfBatch}. Requirements: - `accounts` and `ids` must have the same length."
      },
      "isApprovedForAll(address,address)": {
        "details": "See {IERC1155-isApprovedForAll}."
      },
      "safeBatchTransferFrom(address,address,uint256[],uint256[],bytes)": {
        "details": "See {IERC1155-safeBatchTransferFrom}."
      },
      "safeTransferFrom(address,address,uint256,uint256,bytes)": {
        "details": "See {IERC1155-safeTransferFrom}."
      },
      "setApprovalForAll(address,bool)": {
        "details": "See {IERC1155-setApprovalForAll}."
      },
      "supportsInterface(bytes4)": {
        "details": "See {IERC165-supportsInterface}."
      },
      "uri(uint256)": {
        "details": "See {IERC1155MetadataURI-uri}. This implementation returns the same URI for *all* token types. It relies on the token type ID substitution mechanism https://eips.ethereum.org/EIPS/eip-1155#metadata[defined in the EIP]. Clients calling this function must replace the `\\{id\\}` substring with the actual token type ID."
      }
    },
    "version": 1
  },
  "userdoc": {
    "kind": "user",
    "methods": {},
    "version": 1
  }
}